:100000000C94D6000C94FE000C94FE000C94BE08D8
:100010000C9499080C9474080C94FE000C94FE0047
:100020000C94FE000C94FE000C94FE000C947409D9
:100030000C94FE000C94FE000C94FE000C94FE0048
:100040000C94D7060C94FE000C942E0C0C94080C07
:100050000C94FE000C94FE000C94FE000C94FE0028
:100060000C94350A0C94FE003D143D1456147F1474
:1000700075148B149714AC14C214E614E614190DFD
:10008000210D280D2E0D350D3B0D560D420D4B0D3E
:10009000F70EFA0E780E9B0E100FAF0EB70EA50FCF
:1000A000D60EF70EAF0EFA0E780E9B0E100F3B0F0A
:1000B0004E0F630F036EDB363D9A9999993DABAABB
:1000C000AA2A3E000000803F084AD73B3BCE016E83
:1000D00084BCBFFDC12F3D6C74319ABD56833DDA9F
:1000E0003D00C77F11BED9E4BB4C3E916BAAAABEAE
:1000F000000000803F072C7AA5BA6CC590DA3B93CC
:1001000065FC8BBC53F810FD3C5692834DBD879D1A
:100110003AB63DCBC9BF5BBE73DA0FC93F005A4444
:10012000410056544700524D430047535600475331
:10013000540047534100474C4C00474741003A01A7
:10014000360132012E012A01260122011E01000082
:100150000000240027002A0000000008000201001F
:100160000003040700000000000000000000000081
:10017000250028002B000000000023002600290095
:10018000040404040404040402020202020203033D
:100190000303030301020408102040800102040845
:1001A0001020010204081020061B8D1211241FBE0E
:1001B000CFEFD8E0DEBFCDBF12E0A0E0B1E0E6EBCC
:1001C000F2E402C005900D92AE37B107D9F727E0EF
:1001D000AEE7B2E001C01D92AD30B207E1F710E02A
:1001E000C5EDD0E004C02197FE010E94EA1FC43D86
:1001F000D107C9F70E948E120C944E210C94000076
:10020000FC01538D448D252F30E0842F90E0821B1C
:10021000930B541710F0CF96089501970895FC01A1
:10022000918D828D981761F0828DDF01A80FB11D2D
:100230005D968C91928D9F5F9F73928F90E0089551
:100240008FEF9FEF0895FC01918D828D981731F00B
:10025000828DE80FF11D858D90E008958FEF9FEF5F
:100260000895FC01918D228D892F90E0805C9F4F35
:10027000821B91098F739927089580E090E0892B64
:1002800029F00E94B70B81110C94000008953FB72C
:10029000F89480910E0390910F03A0911003B091F8
:1002A000110326B5A89B05C02F3F19F00196A11D8B
:1002B000B11D3FBFBA2FA92F982F8827820F911DFC
:1002C000A11DB11DBC01CD0142E0660F771F881F43
:1002D000991F4A95D1F70895E091E506F091E60659
:1002E0003097C1F00288F389E02D309709F0099426
:1002F0002091DE0630E0A9014F5F5F4F4F73552715
:100300009091DF06941731F0F901E753FD4F808398
:100310004093DE060895CF93DF93FC013091E00611
:100320003F3FA9F1A685B7859C918091E40689237A
:1003300071F126B58091DC069091DB06290F909132
:10034000C802291B99E0931B289F90011124232F99
:10035000332726952695492F50E042175307B8F4C6
:100360008091C7022091C602915018F0822B220F73
:10037000FBCFEF018093C7022093C6029093E00663
:100380000E946C0181E02A893B89232B09F080E0DF
:10039000DF91CF9108951F93CF93DF93C6B5D0918E
:1003A000E406D8235091E0065F3F51F4D11155C0C7
:1003B0001092E00681E08093C6021092C70247C007
:1003C0008091DC062091DB062C0F9091C802291B3E
:1003D000289F90011124232F33272695269549E045
:1003E000451B842F90E011E08217930710F010E076
:1003F000422F540F5093E0068091C7029091C6029D
:10040000292FD1110FC04150922F990F4F3F19F052
:10041000822B292FF8CF8093C7029093C6025830C1
:10042000B0F018C0415001C0220F4A95EAF720935E
:10043000C602822B8093C702583048F00E946C019C
:10044000D13011F01111B4CF8FEF8093E006C0933B
:10045000C80203C00E946C01F5CFDF91CF911F91BC
:100460000895CF92DF92EF92FF920F931F93CF9355
:10047000DF938C01D62E8091E1069091E206892BC4
:1004800009F45BC0D8011C969C91983050F081E033
:100490009E3008F480E0D1E001C0DD0F8A95EAF7D4
:1004A00001C0D4E0CFB6F894F6B480E0E12CE39438
:1004B000E091E106F091E2069091E306BAE0EB16D6
:1004C00069F1882319F08081982B03C08081909571
:1004D00098239083C091DD06C63091F4E0FE10C0F1
:1004E000C7E00EC08BB38D2381F08BB38D2B8BBBFC
:1004F000D8011E96ED91FC911F9780810E94CB013F
:1005000086B58F198C1770F304C0C8010E948B0147
:10051000F7CFFC0E8D2D8170D694C9CF8081982B9A
:100520009083CFBE86B58F198C1720F4C8010E9426
:100530008B01F8CF81E090E002C080E090E0DF9195
:10054000CF911F910F91FF90EF90DF90CF90089582
:100550002091DF068091DE06821769F030E0F90114
:10056000E753FD4F80812F5F3F4F2F733327209339
:10057000DF0690E008958FEF9FEF0895FC01209132
:10058000DE0630E08091DF06281B3109C901805C5E
:100590009F4F60E470E00E94D61F811105C0CF011B
:1005A000F8940E948B01789490E00895089580E07B
:1005B00090E0089585ED8093BC008091BC0084FD9F
:1005C000FCCF1092810408954091A002262F30E0C4
:1005D000240F311D21323105DCF4209181042430B7
:1005E000C9F4FC0180E090E0861758F43091A00235
:1005F0002191DC01A258BD4FA30FB11D2C93019690
:10060000F3CF8091A002680F6093A00280E008956C
:1006100081E0089582E008950895E091E8068091D0
:10062000E706E81730F4F0E0E751F94F808190E0F9
:1006300008958FEF9FEF08959091E8068091E70667
:10064000981750F4E92FF0E0E751F94F208130E09E
:100650009F5F9093E80602C02FEF3FEFC901089516
:100660008091E70690E02091E806821B91090895A9
:10067000CF92DF92EF92FF920F931F93CF93DF936E
:100680007C01262F972F8A0180918204882391F084
:10069000C62FD72F6E01C40ED51ECC15DD0571F007
:1006A0006991D701ED91FC910190F081E02DC70196
:1006B0000995F3CF642F822F0E94E402C801DF91D5
:1006C000CF911F910F91FF90EF90DF90CF90089501
:1006D000CF93DF931F92CDB7DEB769832091820459
:1006E0002223D1F02091A504203240F021E030E017
:1006F000FC013383228380E090E015C08091830465
:10070000E82FF0E0EC57FB4F998190838F5F809347
:1007100083048093A50405C061E0CE0101960E9488
:10072000E40281E090E00F90DF91CF910895089569
:10073000FC0110820895089580E090E008950E94E1
:1007400031210F931F93CF93DF938C01EB0188E24C
:10075000FB0111928A95E9F74BE050E066E772E001
:10076000CE010E943F211B8681E090E0A0E0B0E036
:100770008C879D87AE87BF87F80184819581A6818C
:10078000B781888B998BAA8BBB8B83E090E0A0E02C
:10079000B0E08C8B9D8BAE8BBF8B1CA21DA21EA2CA
:1007A0001FA2188E198E1A8E1B8E1C8E1D8E1E8EE9
:1007B0001F8E8AE097EDA3E2BCE388A399A3AAA3C6
:1007C000BBA3DF91CF911F910F9108950C949920B5
:1007D000EF92FF920F931F93CF93DF9340917C068C
:1007E00050917D0660917E0670917F064F5F5F4F4E
:1007F0006F4F7F4F40937C0650937D0660937E063B
:1008000070937F068432B1F48091A30684FF03C005
:100810008F7E8093A30610929F061092730681E04C
:100820008093A4061092A1068091A3068D7F8093E9
:10083000A306A5C1C82FD091A406D23041F58A32B3
:1008400021F483E08093A4061CC080EE8C0F8F35CA
:1008500008F0EBC080919F068C2780939F068C2F19
:100860000E94610E882309F4E0C0CC3269F48091C3
:10087000A3068D7F8093A3068091A0068F5F80934F
:10088000A0061092A1067BC18091A10664C1D1305F
:1008900009F055C080919F068C2780939F06CC322B
:1008A00029F48091730681115FC159C18091A1061D
:1008B000823008F450C16EEF680F20917306222336
:1008C00029F02150283018F4922F01C090E0E92F30
:1008D000F0E0EE0FFF1FE25CFE4F25913491A62F52
:1008E000B0E0F901EA0FFB1FE491CE1304C09F5F53
:1008F0009093730630C1CE170CF431C19F5F9830CE
:1009000009F42DC1E92FF0E0EE0FFF1FE25CFE4F6E
:1009100005911491A9017801E21AF30A742F721B50
:10092000761710F09801DDCFFA017491F701E40F0A
:10093000F51FE4914F5F5F4F7E1781F3F3CFD33004
:1009400009F078C0C0628FE98C0F863010F4C7556B
:1009500001C0C0534091A10620919F068C2F90E0CA
:1009600041110EC031E03093A10630E044E03595EE
:1009700027954A95E1F72817390709F400C142C0C5
:100980002F7030E028173907E9F58091A30681FF21
:1009900009C08D7F8093A3064F5F4093A1068CE230
:1009A0000E94610E8091740690917506A091760662
:1009B000B09177060196A11DB11D809374069093A6
:1009C0007506A0937606B093770691E08091730642
:1009D000813009F090E08091A30690FB84F9809328
:1009E000A3061092A4062091C406222341F1886038
:1009F0008093A3061092C5068091C406815080930F
:100A0000C4061DC08091780690917906A0917A065F
:100A1000B0917B060196A11DB11D8093780690933D
:100A20007906A0937A06B0937B068EE996E00E9441
:100A3000980395C0D111A3C010927306A0C08091F5
:100A40009E0680FF0CC03091C30620919D0630FFAA
:100A500004C03091C206321710F42093C20681FF01
:100A60000CC0209199062093BE0620919A062093EF
:100A7000BF0620919B062093C00682FF10C02091E4
:100A800097062093BC06209196062093BB062091E2
:100A900095062093BA0620919C062093C10683FFF9
:100AA00009C088E0E0E8F6E0A5EAB6E001900D9222
:100AB0008A95E1F780919E0684FF10C040918806D8
:100AC0005091890660918A0670918B064093AD061D
:100AD0005093AE066093AF067093B00686FF10C0C9
:100AE0004091900650919106609192067091930604
:100AF0004093B5065093B6066093B7067093B80658
:100B000085FF10C040918C0650918D0660918E0635
:100B100070918F064093B1065093B2066093B3066E
:100B20007093B40687FF04C0809194068093B90641
:100B30002091C30680919E06822B8093C306992341
:100B4000F1F01092C6068091C406811118C081E0B0
:100B50008093C40614C08F5F8093A10610C01092CA
:100B600073061092A4060BC08EE996E00E949803CB
:100B7000D093A0061092A10682E08093A406DF9194
:100B8000CF911F910F91FF90EF900895FC01848DFC
:100B9000DF01A80FB11DA35ABF4F2C91848D90E0A7
:100BA00001968F739927848FA689B7892C93A08982
:100BB000B1898C9180648C93938D848D981306C039
:100BC0000288F389E02D80818F7D80830895CF9303
:100BD000DF93EC01888D8823C9F0EA89FB89808145
:100BE00085FD05C0A889B9898C9186FD0FC00FB617
:100BF00007FCF5CF808185FFF2CFA889B9898C9158
:100C000085FFEDCFCE010E94C605E7CFDF91CF91E2
:100C1000089590E0FC01E85AFE4F3491FC01EC5637
:100C2000FE4F2491FC01E058FE4FE491EE2309F4BD
:100C30003BC0332339F1333091F038F43130A9F02F
:100C4000323001F584B58F7D12C0373091F03830E5
:100C5000A1F03430B9F4809180008F7D03C0809181
:100C600080008F77809380000DC084B58F7784BD1E
:100C700009C08091B0008F7703C08091B0008F7D54
:100C80008093B000F0E0EE0FFF1FE459FE4FA591F6
:100C9000B4918FB7F894EC91611103C020952E2385
:100CA00001C02E2B2C938FBF0895CF93DF9390E03C
:100CB000FC01EC56FE4F2491FC01E058FE4F84915C
:100CC000882361F190E0880F991FFC01E25BFE4FE1
:100CD000C591D491FC01E459FE4FA591B4916111E5
:100CE00009C09FB7F8948881209582238883EC916E
:100CF0002E230BC0623061F49FB7F8943881822FA5
:100D0000809583238883EC912E2B2C939FBF06C064
:100D10008FB7F894E8812E2B28838FBFDF91CF9176
:100D200008958F929F92AF92BF92CF92DF92EF92EF
:100D3000FF926B017C010E9447014B015C01C114D1
:100D4000D104E104F104F1F00E944701DC01CB0180
:100D500088199909AA09BB09883E9340A105B105E4
:100D600070F321E0C21AD108E108F10888EE880E7C
:100D700083E0981EA11CB11CC114D104E104F1044C
:100D800019F7DDCFFF90EF90DF90CF90BF90AF903D
:100D90009F908F9008952FB7F89460910A037091F7
:100DA0000B0380910C0390910D032FBF08951F92A8
:100DB0000F920FB60F9211242F933F938F939F930F
:100DC000AF93BF9380910A0390910B03A0910C0302
:100DD000B0910D033091090323E0230F2D3720F448
:100DE0000196A11DB11D05C026E8230F0296A11D85
:100DF000B11D2093090380930A0390930B03A093E2
:100E00000C03B0930D0380910E0390910F03A091FA
:100E10001003B09111030196A11DB11D80930E0323
:100E200090930F03A0931003B0931103BF91AF9160
:100E30009F918F913F912F910F900FBE0F901F9018
:100E40001895EF92FF920F931F93CF93DF93EC01CE
:100E5000042FE52E122F8B8191E0909382048093D2
:100E6000A404109283041092A5048BE096E00E94E3
:100E7000680381E00E943E10612F113208F060E2A9
:100E80008B810E94F2101092E8068093E706F02E04
:100E9000C02FDE2D8C2F8F19811730F48BE096E058
:100EA0000E941C038993F6CF81E0DF91CF911F91BF
:100EB0000F91FF90EF9008958F929F92AF92BF9203
:100EC000CF92DF92EF92FF920F931F93CF93DF9316
:100ED000CDB7DEB762970FB6F894DEBF0FBECDBFB9
:100EE0007C018B0184E2DB011D928A95E9F784E2A3
:100EF00090E0A0E0B0E0FB0180839183A283B38304
:100F0000F70184819581A681B781FB018483958354
:100F1000A683B78383E090E0A0E0B0E0808791876C
:100F2000A287B3870E94CB06D80150966D937D931C
:100F30008D939C935397FE0131968CE0DF011D92B7
:100F40008A95E9F7AE01435F5F4F86E0FA0111929F
:100F50008A95E9F726E06AE170E0C7010E9421075F
:100F60006E8570E0762F66278D85682B072E000C26
:100F7000880B990B0E940F1E20E030E040E85DE3F3
:100F80000E94FE1E4B015C01688970E0762F662787
:100F90008F85682B072E000C880B990B0E940F1E63
:100FA00020E030E040E85DE30E94FE1E6B017C0122
:100FB0008A8990E0982F88272989822BBC01990F74
:100FC000880B990B0E940F1E20E030E040E85DE3A3
:100FD0000E94FE1ED80154968D929D92AD92BC92B5
:100FE0005797F801C08ED18EE28EF38E5C966D938A
:100FF0007D938D939C935F9781E062960FB6F894F2
:10100000DEBF0FBECDBFDF91CF911F910F91FF903B
:10101000EF90DF90CF90BF90AF909F908F9008950A
:101020008F929F92AF92BF92CF92DF92EF92FF92F8
:101030004B015C016B017C0184E0F694E794D7944A
:10104000C7948A95D1F7D501C40122E0B695A7953A
:10105000979587952A95D1F7C80ED91EEA1EFB1ED3
:10106000D701C60134E0B695A795979587953A952F
:10107000D1F7C80ED91EEA1EFB1EBB27AF2D9E2D31
:101080008D2DC80ED91EEA1EFB1EC701AA27BB273D
:10109000C80ED91EEA1EFB1EA3E0B0E0A701960110
:1010A0000E94511CA5019401261B370B480B590BBC
:1010B000ABE0B0E00E94511CDC01CB0165E0B695CD
:1010C000A795979587956A95D1F7BC01CD016C0DD1
:1010D0007D1D8E1D9F1DFF90EF90DF90CF90BF90E4
:1010E000AF909F908F9008951F920F920FB60F921E
:1010F00011242F933F934F935F936F937F938F931D
:101100009F93AF93BF93EF93FF9389B10E94CB015D
:10111000FF91EF91BF91AF919F918F917F916F91CF
:101120005F914F913F912F910F900FBE0F901F90A5
:1011300018951F920F920FB60F9211242F933F9381
:101140004F935F936F937F938F939F93AF93BF93CF
:10115000EF93FF9386B10E94CB01FF91EF91BF9176
:10116000AF919F918F917F916F915F914F913F913F
:101170002F910F900FBE0F901F9018951F920F92F6
:101180000FB60F9211242F933F934F935F936F935A
:101190007F938F939F93AF93BF93EF93FF9383B10D
:1011A0000E94CB01FF91EF91BF91AF919F918F91E1
:1011B0007F916F915F914F913F912F910F900FBE53
:1011C0000F901F901895FC0190819C3080F58181D3
:1011D00028E830E0281B310987FD3395220F331FA3
:1011E000220F331F621773077CF0828128E532E0FB
:1011F000281B310987FD3395220F331F220F331F20
:10120000621773070CF49B0122503109220F331F20
:101210004FB7F894892F90E0FC01EE0FFF1F8E0F5F
:101220009F1FFC01E95EF94F328321834FBF089570
:101230001F93CF93DF93EC01162F88818C3008F039
:101240004EC061E0812F0E9455068881E82FF0E0B2
:101250009F01220F331FE20FF31FE95EF94F1F7347
:101260009081907C192B108319821A826CE00E9465
:10127000CA1F9CE0899FB001112440E050E09A0110
:10128000260F371FF901EE0FFF1F2E0F3F1FF90129
:10129000E95EF94F908196FD16C04F5F5F4F4C306D
:1012A000510569F781110FC01092800082E0809390
:1012B00081001092850010928400B19A80916F0095
:1012C000826080936F00E881F0E0CF01880F991F62
:1012D000E80FF91FE95EF94F80818064808388817F
:1012E000DF91CF911F9108951F920F920FB60F9229
:1012F00011242F933F934F935F936F937F938F931B
:101300009F93AF93BF93EF93FF938091C50287FFA5
:1013100005C010928500109284001BC02091C50268
:10132000022E000C330B80913B0690E02817390702
:1013300084F48091C502082E000C990BFC01EE0F7D
:10134000FF1F8E0F9F1FFC01E95EF94F808186FD14
:1013500015C08091C5028F5F8093C5022091C502A0
:10136000022E000C330B80913B0690E028173907C2
:10137000C4F48091C5028C3064F113C08091C50221
:10138000082E000C990BFC01EE0FFF1F8E0F9F1F04
:10139000FC01E95EF94F808160E08F730E940906CD
:1013A000D8CF8091840090918500049680349C4928
:1013B00018F480E49CE905C0809184009091850038
:1013C000049690938900809388008FEF8093C502E4
:1013D0003BC020918400309185008091C502082E89
:1013E000000C990BFC01EE0FFF1F8E0F9F1FFC01DD
:1013F000E95EF94F81819281820F931F909389005A
:10140000809388008091C502082E000C990BFC0186
:10141000EE0FFF1F8E0F9F1FFC01E95EF94F8081C9
:1014200086FF12C08091C502082E000C990BFC01AA
:10143000EE0FFF1F8E0F9F1FFC01E95EF94F8081A9
:1014400061E08F730E940906FF91EF91BF91AF9108
:101450009F918F917F916F915F914F913F912F91CC
:101460000F900FBE0F901F9018951F920F920FB6FE
:101470000F9211242F933F934F935F936F937F931A
:101480008F939F93AF93BF93EF93FF938091B90096
:10149000887F803609F49CC068F5883209F45BC007
:1014A00090F4803109F454C038F4882309F4F6C06C
:1014B000883009F44DC0F6C0883109F44CC0803240
:1014C00009F45DC0EFC0803409F468C048F480338B
:1014D00009F455C0883309F0E5C080937F04D8C073
:1014E000803509F44FC0883509F45DC0883409F0AF
:1014F000D9C0D6C0883909F4C7C0A8F4883709F420
:1015000067C038F4883609F463C0803709F460C0D6
:10151000C9C0883809F4B8C0803909F45FC0803880
:1015200009F0C0C05BC0803B09F486C038F4803A43
:1015300009F466C0883A09F47FC0B4C0803C09F45D
:10154000A7C0883C09F4A4C0883B09F48AC0AAC09B
:1015500080915C0410C090917E0480917D04981766
:1015600070F5E0917E0481E08E0F80937E04F0E0C0
:10157000E35AFB4F80818093BB0085EC86C080934B
:101580007F048EC0E0917E0481E08E0F80937E0404
:101590008091BB00F0E0E35AFB4F808390917E0482
:1015A00080917D046EC0E0917E0481E08E0F809377
:1015B0007E048091BB00F0E0E35AFB4F8083809172
:1015C000800481116DC081E080935B0484EA61C076
:1015D00083E0809381041092C402CFCF8091C40233
:1015E000803208F051C0E091C40281E08E0F8093F8
:1015F000C4028091BB00F0E0EC55FD4F8083BDCF6D
:1016000085EC8093BC00109281048091C4028032EA
:1016100030F4E091C402F0E0EC55FD4F108260918F
:10162000C40270E0E091A202F091A30284EA92E089
:1016300009951092C40236C084E080938104109210
:10164000A1021092A002E0919E02F0919F020995E2
:101650008091A002811105C081E08093A0021092C8
:101660007E02E091A10281E08E0F8093A102F0E062
:10167000E258FD4F80818093BB009091A102809140
:10168000A002981708F479CF85E88093BC000AC0BF
:1016900085EC8093BC001092810404C010927F04FA
:1016A0000E94DA02FF91EF91BF91AF919F918F91CC
:1016B0007F916F915F914F913F912F910F900FBE4E
:1016C0000F901F90189508956CED75E081E596E0F8
:1016D0000E94E3086CED75E08EE496E00C94E3085C
:1016E000FB012081822790E1899F90011124282706
:1016F000822F90E0582F44279C0163E0220F331F74
:101700006A95E1F742275327218130E024273527C6
:1017100074E0959587957A95E1F7822793279183D1
:1017200080830895FC01148215821682178210822C
:1017300011821282138211861086138612861586F4
:10174000148617861686118A108A138A128A148ABA
:10175000168A178A158A81E0818F828F138E87E01F
:10176000808F148E158ECF014E960C9498038EE6C2
:1017700095E00E94310121E0892B09F420E0822FBD
:101780000895EF92FF920F931F93CF93DF93EC0195
:1017900081E0888F9B8D8C8D981305C0E889F9892D
:1017A000808185FD24C0F62E0B8D10E00F5F1F4F4A
:1017B0000F731127E02E8C8DE8120CC00FB607FCBA
:1017C000FACFE889F989808185FFF5CFCE010E94A3
:1017D000C605F1CF8B8DFE01E80FF11DE35AFF4FD7
:1017E000F0820B8FEA89FB898081806207C0EE89D5
:1017F000FF896083E889F98980818064808381E042
:1018000090E0DF91CF911F910F91FF90EF9008959D
:101810001F920F920FB60F9211242F933F934F9365
:101820005F936F937F938F939F93AF93BF93EF9348
:10183000FF938EE695E00E94C605FF91EF91BF9160
:10184000AF919F918F917F916F915F914F913F9158
:101850002F910F900FBE0F901F9018951F920F920F
:101860000FB60F9211242F938F939F93EF93FF93B3
:10187000E0917E05F0917F058081E0918405F091F3
:10188000850582FD12C09081809187058F5F8F73DF
:1018900020918805821751F0E0918705F0E0E25928
:1018A000FA4F958F8093870501C08081FF91EF915A
:1018B0009F918F912F910F900FBE0F901F901895B1
:1018C000FC018091A106882321F06C3209F04CC004
:1018D00018C011821082138212828091A306826046
:1018E0008093A3061092A20681E06D3209F080E099
:1018F0009091A30680FB90F99093A306882329F387
:1019000066C08091A206811103C081E08093A20687
:1019100082819381892B99F48091A30680FF22C054
:1019200082819381919581959109938382838081AE
:1019300091819195819591099183808313C02AE0CB
:101940008091A20691E0980F9093A206481720F389
:1019500062817381269FC001279F900D112493837C
:101960008283EECF81E008956E3221F481E080938E
:10197000A2062DC08091A206811112C02081318162
:101980004AE0429FC001439F900D1124062E000C97
:10199000770B60537109680F791F7183608317C0DB
:1019A00091E0980F9093A206481788F02281338126
:1019B0004AE0429FC001439F900D1124062E000C67
:1019C000770B60537109680F791F7383628380E01E
:1019D0000895813311F0813411F483E014C0803311
:1019E00021F08E3411F0863519F410929D060DC049
:1019F000823311F0843411F484E005C0863311F091
:101A0000853441F481E080939D0680919E0681603B
:101A100080939E0680E00895E091A1064E2F50E04D
:101A20004930510508F042C0FA01E15CFF4F0C94C7
:101A3000EA1F8C32D9F1880F8056982F990F990F91
:101A400003C0909197069053890F809397062EC0FC
:101A5000880F8056982F990F990F03C09091960682
:101A60009053890F8093960621C0880F8056982F37
:101A7000990F990F03C0909195069053890F809309
:101A8000950614C0880F8056982F990F990F890FCB
:101A900080939C060BC090919C069053890F809375
:101AA0009C0680919E06846080939E0681E0089546
:101AB000CF92DF92EF92FF921F93CF93DF93EC01CF
:101AC000162F8091A10681110BC0188219821A82EB
:101AD0001B821092A2068091A30682608093A306C7
:101AE0001E3291F01C3209F07FC08091A20688233B
:101AF00059F08091A206843099F5288139814A8174
:101B00005B81A4E6B0E046C081E08093A206298113
:101B1000822F82958F702F703AE0839F200D1124C1
:101B20008A8181112C598881982F92959F708F708E
:101B30003AE0939F800D112490E03CE3239F800DB9
:101B4000911D1124092E000CAA0BBB0B88839983CD
:101B5000AA83BB831E3209F4A9C01C3251F244C0CF
:101B6000853039F4288139814A815B81AAE0B0E06F
:101B700011C08630F1F008F09BC0288139814A817C
:101B80005B81833019F4A8EEB3E004C0823029F4FD
:101B9000A0E1B7E20E94511C08C0813051F460EA14
:101BA00076E881E090E00E94001C688379838A8354
:101BB0009B83C880D980EA80FB80D701C601880F4B
:101BC000991FAA1FBB1FBC01CD016F5F7F4F8F4FB5
:101BD0009F4F0E941008C60ED71EE81EF91EC8822D
:101BE000D982EA82FB8264C08091A206811118C06A
:101BF000812F110F990BC097092E000CAA0BBB0B5C
:101C0000488159816A817B8134E0440F551F661FEA
:101C1000771F3A95D1F7842B952BA62BB72B42C073
:101C20008F5F8093A2068730C0F4288139814A8172
:101C30005B81AAE0B0E00E94511C212F110F330BF1
:101C4000205331096901330FEE08FF08DC01CB0195
:101C50008C0D9D1DAE1DBF1D25C0873039F5C88078
:101C6000D980EA80FB80D701C601880F991FAA1F7F
:101C7000BB1FBC01CD016F5F7F4F8F4F9F4F0E94F5
:101C80001008DC01CB018C0D9D1DAE1DBF1D19334D
:101C900024F00296A11DB11D05C014331CF001965D
:101CA000A11DB11D88839983AA83BB8380E001C0F5
:101CB00081E0DF91CF911F91FF90EF90DF90CF9067
:101CC0000895682F80917306813021F0863009F4E1
:101CD00080C03BC1E091A0068E2F90E0FC013197BF
:101CE000E930F10508F031C1E85BFF4F0C94EA1FC1
:101CF0008091A30682FF29C18091A106811125C18F
:101D0000633509F022C18091800690918106A091EF
:101D10008206B0918306B095A095909581959F4FCE
:101D2000AF4FBF4F8093800690938106A0938206A9
:101D3000B09383060AC16C3249F48091A1068111E7
:101D400005C08091A3068B7F8093A3068091A30694
:101D500082FFFBC084E896E00E94580DF6C0809197
:101D6000A1068111F2C0862F0E94E90CEEC080917D
:101D7000A3068E7F8093A30681E06C3209F080E099
:101D80009091A106911104C08111DFC060530BC076
:101D90008111D6C080919406880F982F990F990FC2
:101DA000890F8053680F60939406CAC042E088E8A8
:101DB00096E00E94600C882309F4C7C021E090914E
:101DC000A106911101C020E090919E0620FB94F99C
:101DD00077C0E091A0068E2F90E0FC013197E930AA
:101DE000F10508F0B2C0EF5AFF4F0C94EA1F862F9E
:101DF0000C940C0D8091A106882339F08091A306E4
:101E000082FFA3C080E896E0A7CF91E06C3209F48E
:101E100090E08091A30690FB82F98093A306EECF19
:101E20009091A30692FB882780F992FF8EC0909133
:101E3000A10691118AC090919E06986090939E068B
:101E4000673509F082C04091840650918506609103
:101E500086067091870670956095509541955F4F05
:101E60006F4F7F4F4093840650938506609386069C
:101E700070938706089543E08CE896E00E94600C1A
:101E8000882309F462C021E09091A106911101C05C
:101E900020E090919E0620FB95F912C042E080E977
:101EA00096E00E94600C882309F44FC021E09091D5
:101EB000A106911101C020E090919E0620FB96F9A9
:101EC00090939E0608958091A106823019F140F406
:101ED0008823A9F08130C9F580919906805316C0F6
:101EE000843029F1E8F0853081F580919B0680539C
:101EF000680F60939B0680919E06826024C06C32BE
:101F000021F1660F6056862F880F880F680F609347
:101F100099061BC0660F6056862F880F880F03C076
:101F200080919A068053680F60939A060EC0660FE0
:101F30006056862F880F880F680F60939B0605C038
:101F400080919E06806880939E0681E00895EF92BE
:101F5000FF920F931F93CF93DF9386EDE82E84E0DB
:101F6000F82EF701038110E0E8012696AE0168ED36
:101F700074E086E295E00E943621CA5DDA4FF701EF
:101F80009081818198838983C8010896DF91CF91E0
:101F90001F910F91FF90EF900895CF92DF92EF92F3
:101FA000FF920F931F93CF93DF9300D0CDB7DEB78F
:101FB000162F042F9EEF9093D8046093D90491E0DC
:101FC0009093DB048093DC049091AD049093DA0449
:101FD0009F5F9093AD048FEF9FEF9A83898389ED84
:101FE000E82E84E0F82EFEEDEF16F4E0FF0649F04F
:101FF000BE016F5F7F4FF70181917F010E94700BDF
:10200000F2CF89819A819093D7048093D604C090AF
:10201000D904D12CE12CF12CEC14FD0461F0F70172
:10202000EA52FB4F66ED74E080850E94700B8FEFE3
:10203000E81AF80AF1CF66ED74E0802F0E94700B69
:10204000E091D904F0E0E252FB4F8091D604808306
:10205000E091D904F0E0E152FB4F8091D7048083F6
:10206000812F90E008960F900F90DF91CF911F91F4
:102070000F91FF90EF90DF90CF900895382F20912F
:10208000A5049091A404213208F049C080918104F4
:102090008111FCCF42E040938104309380043FEFF4
:1020A00030937F0410927E0420937D04A4E8B4E072
:1020B0004DE554E0FA013E2F341B321718F43D91E0
:1020C0003193F9CF10925C0420915C04990F922B0C
:1020D00090935C0490915B04913061F410925B04E6
:1020E00090915C049093BB009091BC0093FDF8CF5D
:1020F00095EC01C095EE9093BC00909181049230D4
:10210000E1F390917F049F3F79F080917F048032CA
:1021100041F080917F04803331F084E005C081E09C
:1021200003C082E001C083E0109283041092A504F2
:10213000109282040895CF92DF92EF92FF920F9354
:102140001F93CF93DF936C017A018B01C0E0D0E045
:10215000CE15DF0589F0D8016D918D01D601ED9185
:10216000FC910190F081E02DC6010995892B11F4B5
:102170007E0102C02196ECCFC701DF91CF911F9164
:102180000F91FF90EF90DF90CF900895CF93C62FDF
:102190009091470621E0209382049093A40410922A
:1021A00083041092A504682F8BE096E00E946803D8
:1021B0006C2F8BE096E00E94680381E00E943E1045
:1021C00081E0CF910895E4E4F6E080879187682F5D
:1021D0008DE390E00E94C6106EE170E080E090E038
:1021E0000C949106909181049111FCCF91E0909311
:1021F0008104909380042FEF20937F0410927E043B
:10220000260F20937D0490935C0490915C04880FCA
:10221000892B80935C0480915B04813061F410927F
:102220005B0480915C048093BB008091BC0083FDC3
:10223000F8CF85EC01C085EE8093BC0080918104CD
:102240008130E1F380917E04861710F460917E0462
:10225000ADE5B4E029EE36E0F9018E2F821B86173A
:1022600018F48D918193F9CF862F0895CF93DF9342
:10227000C4E4D6E09B8121E0209382049093A404DF
:10228000109283041092A504682F8BE096E00E94C0
:10229000680381E00E943E1061E08B810E94F21091
:1022A0001092E8068093E7068BE096E00E941C03FC
:1022B000DF91CF910895CF93DF93A091E506B09180
:1022C000E606109709F457C01C968C911C9788302D
:1022D00038F08E3040F0863148F0E0E0F0E008C0A1
:1022E000EDE6F0E005C0EBE6F0E002C0ECE6F0E081
:1022F0005FB7F8941092E6061092E5063097D1F198
:102300001C968C911C97863118F0C0E0D0E002C07A
:10231000C8E6D0E02881883060F031E08E3008F4E3
:1023200030E081E090E001C0880F3A95EAF78095AF
:1023300001C08BEF8223888360811C964C914830CA
:1023400038F481E090E001C0880F4A95EAF70FC0A9
:10235000242F30E04E3018F42850310902C02E509E
:10236000310981E090E001C0880F2A95EAF7809555
:10237000862380835FBF60E08091D3060E9455066C
:102380008091D30690E0FC01EC56FE4FE491E0937F
:10239000E406FC01E058FE4FE491F0E0EE0FFF1F71
:1023A000EA58FE4F859194919093D6068093D50676
:1023B0008091D40690E0FC01EC56FE4F24912093CE
:1023C000E306FC01E058FE4FE491F0E0EE0FFF1F42
:1023D000E459FE4FA591B491B093E206A093E106B3
:1023E000109719F0EC91E22BEC9361E08091D40608
:1023F0000E9455068091D306883040F08E3048F018
:10240000863108F087C0ECE6F0E005C0EDE6F0E0CC
:1024100002C0EBE6F0E08FEF8093E0061092DF065B
:102420001092DE068091D7069091D80681152BE494
:10243000920709F047C08DE08093DD068EE480931B
:10244000DC0686E08093DB065FB7F89440819091CC
:10245000D306983030F481E001C0880F9A95EAF7EE
:102460000EC0292F30E09E3018F42850310902C0E8
:102470002E50310981E001C0880F2A95EAF7842B9C
:1024800080838091D306863118F4E8E6F0E002C03C
:10249000E0E0F0E09081883050F021E08E3008F4E8
:1024A00020E081E001C0880F2A95EAF701C084E0AE
:1024B000892B808387EC96E09093E6068093E5066F
:1024C0005FBF28C081302BE4920760F480389542CA
:1024D00009F0BACF8AE18093DD0687E28093DC06BB
:1024E0008AE0B0CF82312AE7920741F488E08093F6
:1024F000DD0680E88093DC0685E0A4CF811596494F
:1025000009F0A2CF86E08093DD068DE98093DC069A
:1025100084E098CFDF91CF9108950895CF93DF9312
:10252000CDB7DEB7C15AD1090FB6F894DEBF0FBEE2
:10253000CDBF789484B5826084BD84B5816084BD4C
:1025400085B5826085BD85B5816085BD80916E0051
:10255000816080936E001092810080918100826082
:1025600080938100809181008160809381008091BF
:1025700080008160809380008091B10084608093AE
:10258000B1008091B00081608093B00080917A00AA
:10259000846080937A0080917A00826080937A00D0
:1025A00080917A00816080937A0080917A008068BF
:1025B00080937A001092C100E0917E05F0917F0532
:1025C00082E08083E0917E05F0917F051082E091AA
:1025D0007A05F0917B051082E0917C05F0917D05F4
:1025E00080E1808310928605E0918205F091830559
:1025F00086E08083E0918005F09181058081806193
:102600008083E0918005F0918105808188608083DE
:10261000E0918005F0918105808180688083E09160
:102620008005F091810580818F7D808361E08DE060
:102630000E9455068FB7F89428EE33E03093DA06FF
:102640002093D9068FBF8091D7069091D806811527
:10265000964979F080E096E99093D8068093D70662
:102660008091E5069091E606875C964011F40E9401
:102670005B110E945B1163E070E081E596E00E94CF
:10268000180962E070E08EE496E00E9418096CED93
:1026900075E081E596E00E94E3086CED75E08EE45C
:1026A00096E00E94E30811E008E485E4F82E109219
:1026B000E8061092E706109283041092A504109287
:1026C00081041093800410925B0461E082E10E9417
:1026D000090661E083E10E9409068091B9008E7FBE
:1026E0008093B9008091B9008D7F8093B9000093E9
:1026F000B800F092BC0080E090E00E943611803A71
:1027000051F480E090E00E94E31060E28FE390E0FB
:102710000E94C61011C068EE73E080E090E00E9455
:10272000910680E090E00E943611803A51F361E01A
:102730008DE00E940906BBCF80E090E00E94361138
:10274000803A39F06AE070E080E090E00E94910603
:10275000F3CF62E370E080E090E00E94910660E0D9
:102760008EE390E00E94C6106AE070E080E090E0A6
:102770000E94910660E087E090E00E94C61060E051
:102780008FE390E00E94C6106AE070E080E090E085
:102790000E9491068CE090E00E94E31064E170E0FA
:1027A00080E090E00E94910660E08DE00E940906C2
:1027B00000914C0610914D0680E090E00E94E310DD
:1027C00069E170E080E090E00E94910660E087E0BF
:1027D00090E00E94C61060E88FE390E00E94C6106F
:1027E0006AE070E080E090E00E949106C8010E94DB
:1027F000E31064E170E080E090E00E949106CE0179
:1028000084589F4FCE57DF4F99838883C258D0405A
:102810001E0190E7290E311C79E0672E712C0AE029
:1028200010E0E8E0EE2EF12CF7E0CF2ED12CA6E060
:10283000AA2EB12CB5E08B2E912C8EE695E00E944D
:102840003101892B09F448C18EE695E00E940F0101
:102850002C01C857DF4F8883C858D0401092A60477
:102860008091A9049091AA048B30910508F0E1C0F1
:10287000FC01EC5CFF4F0C94EA1FC857DF4F288126
:10288000C858D0402E3F09F0D4C082E090E0909329
:10289000AA048093A90410921503409214038FEFA9
:1028A0009FEF9093130380931203C3C0C857DF4F69
:1028B0003881C858D040313440F08091A7048F5FF0
:1028C0008093A70481E090E00BC040921503109222
:1028D000AB0462E173E0842D0E94700B84E090E011
:1028E0009093AA048093A904A4C04092160362E1C5
:1028F00073E0842D0E94700B83E090E0F1CF409252
:10290000170362E173E0842D0E94700B9092AA0479
:102910008092A9048EC04092180362E173E0842D76
:102920000E94700BB092AA04A092A90482C04092A7
:10293000190362E173E0842D0E94700B80911503EE
:10294000811105C0F092AA04E092A90472C0D0924D
:10295000AA04C092A9046DC0E091AB0481E08E0F7F
:102960008093AB04F0E0E65EFC4F408262E173E0EE
:10297000842D0E94700B9091AB04809115039813E5
:1029800058C0E0CFE0911903F0E0EA5FFE4F62E14A
:1029900073E080810E94700B809112039091130369
:1029A0009927A20155274817590729F01093AA041F
:1029B0000093A90404C07092AA046092A904E09153
:1029C000AB04F0E0E65EFC4F408233C00A97B9F0FA
:1029D00090911303C056DF4F9883C05AD040CF5513
:1029E000DF4F1882C15AD040C2019927C056DF4F2D
:1029F000A881B981C05AD0408A179B0711F082E0A4
:102A000001C081E08093A604E1E0F0E0F093AA0425
:102A1000E093A904E091AB04F0E0E55EFC4F408256
:102A200080E5E2E1F3E0DE01119601900D928A95D6
:102A3000E1F72091A604213099F480911603809348
:102A4000AC048091AE049091AF04009721F41092F1
:102A5000B1041092B00401969093AF048093AE0439
:102A6000409115034C838091AB041092A80422304E
:102A700009F033C590E0FC01E55EFC4F4081042E77
:102A8000000C550B542F4427FC01E65EFC4F2081BF
:102A9000022E000C330BCA01822B932B9A8389835D
:102AA00081E08093A8041092A604C857DF4F2881C4
:102AB000C858D0402E3F09F009C582E090E09093BD
:102AC000AA048093A904109215038FEF9FEF9093AF
:102AD000130380931203B1CE8091C406882309F4B6
:102AE000D6C1CE018F5A9F4F0E94920B8091C4068F
:102AF0008823E9F0F8948091C40681508093C4063D
:102B00008091C5062FE1289FC0011124FC01EB55DF
:102B1000F94FDE01AF5ABF4F01900D922A95E1F7B0
:102B20008B55994F0E94920B1092C50678948FE1B5
:102B3000FE01EF5AFF4FA4E5B6E001900D928A9591
:102B4000E1F7F0917206C857DF4FF883C858D040BC
:102B500020916806CC57DF4F2883C458D04060913D
:102B60005C0670915D0600915E0610915F06809094
:102B7000580690905906A0905A06B0905B06409077
:102B80005406509055066090560670905706072ED2
:102B9000000C880B990BF4FF5DC00E940F1E6B01A7
:102BA0007C01B801110F880B990B0E940F1E2AE0BF
:102BB00037ED43E25CE30E94FE1E9B01AC01C701BE
:102BC000B6010E946C1C0E94D71D1092DE04109268
:102BD000DF041092E0041092E1041092E2041092DB
:102BE000E3041092E4041092E5044092E60450924B
:102BF000E7046092E8047092E9048092EA049092FB
:102C0000EB04A092EC04B092ED046093EE04709398
:102C1000EF048093F0049093F1048FEF9FEF909373
:102C2000F3048093F2049093F5048093F40490935A
:102C3000F7048093F6049093F9048093F80483E0FA
:102C40008093FA04CC57DF4F3881C458D04030937A
:102C5000FB0465C00E940F1E6B017C01B801110FBF
:102C6000880B990B0E940F1E2AE037ED43E25CE3CC
:102C70000E94FE1E9B01AC01C701B6010E946C1CA4
:102C80000E94D71DC857DF4FA881C858D040A3FD68
:102C900002C021E001C022E01092DE041092DF04A5
:102CA0001092E0041092E1041092E2041092E30406
:102CB0001092E4041092E5044092E6045092E70476
:102CC0006092E8047092E9048092EA049092EB0426
:102CD000A092EC04B092ED046093EE047093EF04C4
:102CE0008093F0049093F1048FEF9FEF9093F3049F
:102CF0008093F2049093F5048093F4049093F70486
:102D00008093F6049093F9048093F8042093FA04D6
:102D1000CC57DF4FB881C458D040B093FB0488E152
:102D20008093DD0448E16EE18CED0E94CD0F0E949E
:102D3000A70FAC0166E275E08EE695E00E949B105D
:102D40008091720683FFA3C060916406709165064E
:102D5000072E000C880B990B0E940F1E6B017C0143
:102D60006091660670916706072E000C880B990B20
:102D70000E940F1E2AE037ED43E25CE30E94FE1E34
:102D80009B01AC01C701B6010E946C1C0E94DE1DB4
:102D90006B017C0160915C0670915D06072E000C52
:102DA000880B990B0E940F1E4B015C0160915E061F
:102DB00070915F06072E000C880B990B0E940F1E66
:102DC0002AE037ED43E25CE30E94FE1E9B01AC016A
:102DD000C501B4010E946C1C0E94D71D00915806C9
:102DE0001091590620915A0630915B068090540646
:102DF00090905506A0905606B09057061092DE04AB
:102E00001092DF041092E0041092E1048092E20438
:102E10009092E304A092E404B092E5040093E604E7
:102E20001093E7042093E8043093E9046093EA04E4
:102E30007093EB048093EC049093ED041092EE04F5
:102E40001092EF041092F0041092F1041092F30427
:102E50001092F2041092F5041092F4041092F70408
:102E60001092F604D092F904C092F80481E28093A3
:102E7000DD0448E66CE18CED0E94CD0F0E94A70FA7
:102E8000AC0166E275E08EE695E00E949B100E9420
:102E9000CB0600913C0610913D0620913E063091F4
:102EA0003F06DC01CB01801B910BA20BB30B813DD4
:102EB0009740A105B10510F00E94640B0E94CB065B
:102EC0000091400610914106209142063091430640
:102ED000DC01CB01801B910BA20BB30BC397A105A7
:102EE000B10508F4F0C21092DE041092DF041092D3
:102EF000E0041092E1048AE08093E2041092E3047B
:102F000080EC8093E40484E08093E50483E0809384
:102F1000E6041092DD0442E369E080E00E94CD0FF8
:102F20000E94A70FAC0166E275E08EE695E00E9474
:102F30009B1085E390E00E943611829586958695D8
:102F4000837009F4B6C2BE016F5F7F4F84E496E0E0
:102F50000E945C0788E0D1011D928A95E9F728E07C
:102F6000A10160E270E084E496E00E942107F10193
:102F7000678170E0762F66278681682B072E000C0C
:102F8000880B990B0E940F1E20E030E040E858E3C8
:102F90000E94FE1E2B013C01D10115966C911597E4
:102FA00070E0762F662714968C91682B072E000C04
:102FB000880B990B0E940F1E20E030E040E858E398
:102FC0000E94FE1E4B015C01F101638170E0762FCF
:102FD00066278281682B072E000C880B990B0E94B4
:102FE0000F1E20E030E040E858E30E94FE1ECC5760
:102FF000DF4F688379838A839B83C458D040D10193
:1030000011966C91119770E0762F66278C91682B42
:10301000072E000C880B990B0E940F1E20E030E059
:1030200040E858E30E94FE1EC457DF4F688379834F
:103030008A839B83CC58D0409B01AC010E94FE1E2A
:103040006B017C01CC57DF4F288139814A815B813C
:10305000C458D040CA01B9010E94FE1E9B01AC01B8
:10306000C701B6010E946C1C6B017C01A501940193
:10307000C501B4010E94FE1E9B01AC01C701B6014F
:103080000E946C1C6B017C01A3019201C301B2017F
:103090000E94FE1E9B01AC01C701B6010E946C1C80
:1030A0000E94711F9B01AC0160E070E080E89FE32B
:1030B0000E94651D6B017C019B01AC01C301B20143
:1030C0000E94FE1EC857DF4F688379838A839B83E3
:1030D000C858D040A7019601C501B4010E94FE1E48
:1030E0002B013C01A7019601CC57DF4F6881798104
:1030F0008A819B81C458D0400E94FE1E4B015C0116
:10310000A7019601C457DF4F688179818A819B812D
:10311000CC58D0400E94FE1ECC57DF4F6883798385
:103120008A839B83C458D0408CE0F10111928A9528
:10313000E9F7CC57DF4F288139814A815B81C45838
:10314000D040CA01B9010E94FE1EC457DF4F6883F8
:1031500079838A839B83CC58D040A5019401C50113
:10316000B4010E94FE1ECC56DF4F688379838A83A8
:103170009B83C459D040A3019201C301B2010E94B4
:10318000FE1EC856DF4F688379838A839B83C859A4
:10319000D040C857DF4F288139814A815B81C858A8
:1031A000D040CA01B9010E94FE1EC456DF4F688399
:1031B00079838A839B83CC59D040C856DF4F2881BE
:1031C00039814A815B81C859D040CC56DF4F688134
:1031D00079818A819B81C459D0400E946B1CC4565E
:1031E000DF4F288139814A815B81CC59D0400E94D0
:1031F0006B1CC457DF4F288139814A815B81CC58D1
:10320000D0400E946C1C6B017C01A3019201C5019E
:10321000B4010E94FE1EC057DF4F688379838A8302
:103220009B83C059D040CC57DF4F288139814A81D8
:103230005B81C458D040C857DF4F688179818A814B
:103240009B81C858D0400E94FE1E9B01AC01C05714
:10325000DF4F688179818A819B81C059D0400E946B
:103260006C1C9B01AC010E946C1CA70196010E9482
:10327000061DC057DF4F688379838A839B83C059BB
:10328000D040D1016D937D938D939C931397C85734
:10329000DF4F288139814A815B81C858D040C50100
:1032A000B4010E94FE1E6B017C01CC57DF4F2881C8
:1032B00039814A815B81C458D040C301B2010E9468
:1032C000FE1E9B01AC01C701B6010E946B1C20E0F1
:1032D00030E040E050EC0E94FE1E6B017C01C856BD
:1032E000DF4F288139814A815B81C859D040CC5653
:1032F000DF4F688179818A819B81C459D0400E94C7
:103300006C1CC456DF4F288139814A815B81CC59BE
:10331000D0400E946C1CC457DF4F288139814A81FC
:103320005B81CC58D0400E946C1C9B01AC01C70152
:10333000B6010E94651D0E94D81C6B017C01F10141
:103340006483758386839783CC56DF4F6881798148
:103350008A819B81C459D0409058C856DF4F28813C
:1033600039814A815B81C859D0400E946B1CC45688
:10337000DF4F288139814A815B81CC59D0400E943E
:103380006C1CC457DF4F288139814A815B81CC583E
:10339000D0400E946C1CC457DF4F688379838A83B6
:1033A0009B83CC58D040C857DF4F288139814A8150
:1033B0005B81C858D040C301B2010E94FE1E2B01A0
:1033C0003C01CC57DF4F288139814A815B81C45849
:1033D000D040C501B4010E94FE1E9B01AC01C30197
:1033E000B2010E946C1C9B01AC010E946C1CC45772
:1033F000DF4F288139814A815B81CC58D0400E94BF
:10340000061DD10118966D937D938D939C931B9708
:103410001092DE041092DF041092E0041092E10496
:10342000C092E204D092E304E092E404F092E50456
:103430006093E6047093E7048093E8049093E904B2
:10344000C057DF4F88819981AA81BB81C059D04084
:103450008093EA049093EB04A093EC04B093ED0402
:103460001092EE041092EF041092F0041092F10406
:103470001092F2041092F3041092F4041092F504E6
:103480001092F6041092F7041092F8041092F904C6
:103490008EE18093DD0447E26CE180E00E94CD0F75
:1034A0000E94A70FAC0166E275E08EE695E00E94EF
:1034B0009B100E94CB066093400670934106809358
:1034C0004206909343060E943D01A6C9A1E0B0E0E8
:1034D000B093AA04A093A904B0C9222309F4ADC9EA
:1034E00088858B3081F0853409F43EC08111A5C9EF
:1034F0000E94CB0660933C0670933D0680933E0687
:1035000090933F069AC90E94640B4C81473008F0A3
:1035100046E086E0CE57DF4FA881B981C258D0403F
:103520001D928A95E9F750E0BE01675F7F4FCE019B
:1035300084589F4F0E943621CF57DF4F8881C15852
:10354000D04080935804C458DF4F88819981AA8164
:10355000BB81CC57D0408093520490935304A093E6
:103560005404B093550469C98BE0F10111928A9516
:10357000E9F74C3008F04BE050E0BE01675F7F4F49
:10358000C1010E943621D1012D913C91C901330F17
:10359000AA0BBB0B9C01AD0128513C4F4F4F5F4F15
:1035A000A8EEB3E00E94511C20ED37E040E050E06F
:1035B0000E94321CCA01B90168517C4F8F4F9F4F46
:1035C00081E596E00E94E308F10122813381C9017F
:1035D000330FAA0BBB0B9C01AD0128513C4F4F4F41
:1035E0005F4FA8EEB3E00E94511C20ED37E040E0B1
:1035F00050E00E94321CCA01B90168517C4F8F4FC4
:103600009F4F8EE496E00E94E30817C9109271055F
:103610001092700588EE93E0A0E0B0E08093720510
:1036200090937305A0937405B09375052AE032E07A
:1036300030936F0520936E0525EC30E030937B05C9
:1036400020937A0524EC30E030937D0520937C05AF
:1036500020EC30E030937F0520937E0521EC30E0B4
:10366000309381052093800522EC30E03093830570
:103670002093820526EC30E0309385052093840565
:1036800010928705109288051092890510928A057C
:1036900010920E0610920D0680930F06909310065E
:1036A000A0931106B09312062CE132E030930C0681
:1036B00020930B061092CA061092C9068093CB067F
:1036C0009093CC06A093CD06B093CE068AE492E008
:1036D0009093C8068093C70688E08093D30689E05C
:1036E0008093D4061092DA061092D90680E896E00C
:1036F0000E94920B85EA96E00E94920B109274064B
:10370000109275061092760610927706109278063F
:103710001092790610927A0610927B0610927C061F
:1037200010927D0610927E0610927F0680E896E049
:103730000E94920B1092A40684E596E00E94920BE0
:1037400080913B068C30A0F491E0980F90933B065B
:103750008093510690E0FC01EE0FFF1F8E0F9F1F1C
:10376000FC01E95EF94F88EB9BE09283818303C003
:103770008FEF8093510680913B068C30A0F491E04E
:10378000980F90933B0680934E0690E0FC01EE0F5D
:10379000FF1F8E0F9F1FFC01E95EF94F88EB9BE036
:1037A0009283818303C08FEF80934E068EE292E076
:1037B000909345068093440687E390E0A0E0B0E054
:1037C0008093480690934906A0934A06B0934B060F
:1037D00088E2809347060E94CB0660934006709370
:1037E000410680934206909343060E94CB06609365
:1037F0003C0670933D0680933E0690933F060895E5
:10380000DB018F939F930E94511CBF91AF91A29FA8
:10381000800D911DA39F900DB29F900D11240895CE
:10382000A1E21A2EAA1BBB1BFD010DC0AA1FBB1FC4
:10383000EE1FFF1FA217B307E407F50720F0A21B36
:10384000B30BE40BF50B661F771F881F991F1A94A3
:1038500069F760957095809590959B01AC01BD01CD
:10386000CF010895052E97FB1EF400940E94491C79
:1038700057FD07D00E94101C07FC03D04EF40C9497
:10388000491C50954095309521953F4F4F4F5F4FC4
:10389000089590958095709561957F4F8F4F9F4FBC
:1038A00008950E945C1CA59F900DB49F900DA49F4D
:1038B000800D911D11240895A29FB001B39FC001F6
:1038C000A39F700D811D1124911DB29F700D811D4C
:1038D0001124911D08955058BB27AA270E94831CCC
:1038E0000C94BC1E0E94AE1E38F00E94B51E20F043
:1038F00039F49F3F19F426F40C94701E0EF4E095F1
:10390000E7FB0C946A1EE92F0E94CD1E58F3BA17EC
:10391000620773078407950720F079F4A6F50C94E5
:10392000EF1E0EF4E0950B2EBA2FA02D0B01B9015E
:1039300090010C01CA01A0011124FF27591B99F025
:10394000593F50F4503E68F11A16F040A22F232F31
:10395000342F4427585FF3CF469537952795A79581
:10396000F0405395C9F77EF41F16BA0B620B730B28
:10397000840BBAF09150A1F0FF0FBB1F661F771F99
:10398000881FC2F70EC0BA0F621F731F841F48F44E
:10399000879577956795B795F7959E3F08F0B0CFD7
:1039A0009395880F08F09927EE0F979587950895BE
:1039B0009F939F77EEE389379E0728F4E4EBF0E0CE
:1039C0000E949A1E0CC00E944A1E9058A2EA2AED3C
:1039D0003FE049EC5FE30E94831C0E94BC1E0F90F5
:1039E00007FC905808950E94AE1E60F080E891E0B8
:1039F00009F49EEF0E94B51E28F040E851E071F4F2
:103A00005EEF0CC00C94701E0C94EF1EE92FE07852
:103A10000E94CD1E40F3092E052AB1F32617370761
:103A20004807590738F00E2E07F8E02569F0E02521
:103A3000E0640AC0EF6307F8009407FADB01B901FC
:103A40009D01DC01CA01AD01EF930E947C1D0E9423
:103A5000BC1E0E94361D5F91552339F02BED3FE0CF
:103A600049E450FD49EC0C946C1C0895DF93DD276C
:103A7000B92FBF7740E85FE31616170648075B07C4
:103A800018F4D92F0E94F61E9F938F937F936F9304
:103A90000E94B11FE8ECF0E00E94731E0E94BC1E61
:103AA0002F913F914F915F910E94111FDD2351F0A3
:103AB0009058A2EA2AED3FE049EC5FE3D0785D2719
:103AC0000E94831CDF910C94BC1E0E94791D0C94F3
:103AD000BC1E0E94B51E58F00E94AE1E40F029F494
:103AE0005F3F29F00C946A1E51110C94F01E0C9447
:103AF000701E0E94CD1E68F39923B1F3552391F3F4
:103B0000951B550BBB27AA2762177307840738F04C
:103B10009F5F5F4F220F331F441FAA1FA9F335D0A9
:103B20000E2E3AF0E0E832D091505040E695001C5D
:103B3000CAF72BD0FE2F29D0660F771F881FBB1F17
:103B4000261737074807AB07B0E809F0BB0B802DF5
:103B5000BF01FF2793585F4F3AF09E3F510578F021
:103B60000C946A1E0C94F01E5F3FE4F3983ED4F36D
:103B7000869577956795B795F7959F5FC9F7880FF5
:103B8000911D9695879597F90895E1E0660F771F47
:103B9000881FBB1F621773078407BA0720F0621BD8
:103BA000730B840BBA0BEE1F88F7E09508950E9403
:103BB000DE1D6894B1110C94F01E08950E94D51E6C
:103BC00088F09F5798F0B92F9927B751B0F0E1F0DE
:103BD000660F771F881F991F1AF0BA95C9F714C08E
:103BE000B13091F00E94EF1EB1E008950C94EF1EE9
:103BF000672F782F8827B85F39F0B93FCCF38695C7
:103C000077956795B395D9F73EF490958095709523
:103C100061957F4F8F4F9F4F0895E89409C097FBA0
:103C20003EF490958095709561957F4F8F4F9F4F93
:103C30009923A9F0F92F96E9BB279395F6958795D7
:103C400077956795B795F111F8CFFAF4BB0F11F49A
:103C500060FF1BC06F5F7F4F8F4F9F4F16C0882341
:103C600011F096E911C0772321F09EE8872F762F77
:103C700005C0662371F096E8862F70E060E02AF0B8
:103C80009A95660F771F881FDAF7880F96958795A4
:103C900097F90895DF93CF931F930F938B01EC0156
:103CA000E5EFF0E00E94731E0E94BC1E9801AE0179
:103CB0008B01EC0160E070E080E89FE30E946B1CE8
:103CC0000E94711F9801AE010F911F91CF91DF915A
:103CD0000C94111F97F99F6780E870E060E00895E9
:103CE0009FEF80EC0895DF93CF931F930F93FF9284
:103CF000EF92DF927B018C01689406C0DA2EEF010F
:103D00000E94111FFE01E894A591259135914591DE
:103D10005591A6F3EF010E94831CFE019701A801B3
:103D2000DA9469F7DF90EF90FF900F911F91CF9198
:103D3000DF9108959F938F937F936F93FF93EF93FA
:103D40009B01AC010E94FE1EEF91FF910E94731E29
:103D50002F913F914F915F910C94FE1E00240A9485
:103D60001616170618060906089500240A94121656
:103D70001306140605060895092E0394000C11F489
:103D8000882352F0BB0F40F4BF2B11F460FF04C036
:103D90006F5F7F4F8F4F9F4F089557FD9058440F8F
:103DA000551F59F05F3F71F04795880F97FB991F9A
:103DB00061F09F3F79F08795089512161306140657
:103DC000551FF2CF4695F1DF08C0161617061806E4
:103DD000991FF1CF86957105610508940895E894BF
:103DE000BB2766277727CB0197F908959B01AC0184
:103DF00060E070E080E89FE30C94651D0E94111F55
:103E00000C94BC1E0E94AE1E38F00E94B51E20F01D
:103E1000952311F00C946A1E0C94701E11240C94BE
:103E2000F01E0E94CD1E70F3959FC1F3950F50E0D8
:103E3000551F629FF001729FBB27F00DB11D639F5C
:103E4000AA27F00DB11DAA1F649F6627B00DA11D02
:103E5000661F829F2227B00DA11D621F739FB00DA8
:103E6000A11D621F839FA00D611D221F749F332718
:103E7000A00D611D231F849F600D211D822F762FB1
:103E80006A2F11249F5750409AF0F1F088234AF08E
:103E9000EE0FFF1FBB1F661F771F881F91505040FA
:103EA000A9F79E3F510580F00C946A1E0C94F01EF9
:103EB0005F3FE4F3983ED4F3869577956795B79581
:103EC000F795E7959F5FC1F7FE2B880F911D96959B
:103ED000879597F9089519F416F40C94701E0C94B4
:103EE000B51F0E94D51EB8F39923C9F3B6F39F57A7
:103EF000550B87FF0E94C31F0024A0E640EA9001F3
:103F000080585695979528F4805C660F771F881F18
:103F100020F026173707480730F4621B730B840B19
:103F2000202931294A2BA69517940794202531255D
:103F30004A2758F7660F771F881F20F02617370784
:103F4000480730F4620B730B840B200D311D411DAB
:103F5000A09581F7B901842F9158880F9695879580
:103F600008959B01AC010C94FE1E9F3F31F09150CF
:103F700020F4879577956795B795880F911D96954D
:103F8000879597F9089591505040660F771F881FC5
:103F9000D2F70895991B79E004C0991F961708F08D
:103FA000961B881F7A95C9F78095089597FB072E71
:103FB00016F4009407D077FD09D00E94F01F07FC8B
:103FC00005D03EF4909581959F4F08957095619529
:103FD0007F4F0895EE0FFF1F0590F491E02D099497
:103FE000AA1BBB1B51E107C0AA1FBB1FA617B7071F
:103FF00010F0A61BB70B881F991F5A95A9F780953B
:104000009095BC01CD010895CF93DF938230910547
:1040100010F482E090E0E0910B07F0910C0720E0B3
:1040200030E0C0E0D0E0309711F140815181481775
:104030005907C0F04817590761F48281938120978E
:1040400019F09B838A832BC090930C0780930B07F6
:1040500026C02115310519F04217530718F49A01AB
:10406000BE01DF01EF010280F381E02DDCCF2115DD
:10407000310509F1281B390B2430310590F41296D3
:104080008D919C9113976115710521F0FB0193832C
:10409000828304C090930C0780930B07FD01329636
:1040A00044C0FD01E20FF31F819391932250310927
:1040B0002D933C933AC02091090730910A07232B96
:1040C00041F4209102013091030130930A072093BB
:1040D000090720910001309101012115310541F4BA
:1040E0002DB73EB74091040150910501241B350BBB
:1040F000E0910907F0910A07E217F307A0F42E1BDD
:104100003F0B2817390778F0AC014E5F5F4F24173B
:10411000350748F04E0F5F1F50930A074093090779
:104120008193919302C0E0E0F0E0CF01DF91CF9165
:1041300008950F931F93CF93DF93009709F48CC0DA
:10414000FC0132971382128200910B0710910C0729
:104150000115110581F420813181820F931F209177
:10416000090730910A072817390779F5F0930A07EC
:10417000E093090771C0D80140E050E0AE17BF07D7
:1041800050F412962D913C911397AD0121153105F4
:1041900009F1D901F3CF9D01DA01338322836081D4
:1041A0007181860F971F8217930769F4EC012881AC
:1041B0003981260F371F2E5F3F4F318320838A813D
:1041C0009B8193838283452B29F4F0930C07E09322
:1041D0000B0742C01396FC93EE931297ED014991A1
:1041E00059919E01240F351FE217F30771F4808166
:1041F0009181840F951F029611969C938E938281D4
:10420000938113969C938E931297E0E0F0E0D8018F
:1042100012968D919C911397009719F0F8018C01DB
:10422000F6CF8D919C9198012E5F3F4F820F931F87
:104230002091090730910A072817390769F4309748
:1042400029F410920C0710920B0702C013821282FD
:1042500010930A0700930907DF91CF911F910F91E7
:10426000089581E090E0F8940C944E21FB01DC016C
:1042700002C001900D9241505040D8F70895FB01C3
:10428000DC014150504048F001900D920020C9F7E8
:1042900001C01D9241505040E0F7089510E0C5ED77
:1042A000D0E004C0FE010E94EA1F2196C63DD1075E
:0642B000C9F7F894FFCFEE
:1042B60000000D078000327C8900EDD96877000088
:1042C60000590000000000000000D69FDCA8181767
:1042D600AA90437327F6B968EDF4DED409FEE61C0E
:1042E6001C84DDE80B9929274EC400000F0300004B
:1042F600000000A7B777BF76941500F37C00002670
:10430600149E988F0000006A31168F8C059600E780
:10431600B73F362F000000000000AF669ED0385D24
:104326008A6C20B95422AE7CED044C80387486ED3C
:10433600CBFA57CBDC19E22E1DDF5506E5CB01C3C0
:104346006DA8B52F48837F00679AB2C800000000A9
:104356000000000000000000000000000000000057
:104366000000000000000000000000000000000047
:104376000000000000000000000000000000000037
:104386000000000000000000000000000000000027
:10439600000000000000000000000000A369972351
:1043A600960000000000005A68555F82B85108CC9C
:1043B60031AA2C532E0000000000C10B9B100001F7
:1043C600E70531010F0123010000000068033803EF
:1043D6009C030C0330031C030D0300000000630B59
:1043E600E60397035C07A10300000000000000003D
:1043F60097039F039F030000000031029B109C035C
:10440600D602BE02A802D702000000009F039B103E
:104416009C039B039F039F039F03000000009F03D1
:0E4426009B109C039B03424E4F303535000027
:107E0000112484B714BE81FFF0D085E080938100F7
:107E100082E08093C00088E18093C10086E0809377
:107E2000C20080E18093C4008EE0C9D0259A86E02C
:107E300020E33CEF91E0309385002093840096BBD3
:107E4000B09BFECF1D9AA8958150A9F7CC24DD24C4
:107E500088248394B5E0AB2EA1E19A2EF3E0BF2EE7
:107E6000A2D0813461F49FD0082FAFD0023811F036
:107E7000013811F484E001C083E08DD089C08234E0
:107E800011F484E103C0853419F485E0A6D080C0E4
:107E9000853579F488D0E82EFF2485D0082F10E0AE
:107EA000102F00270E291F29000F111F8ED06801E7
:107EB0006FC0863521F484E090D080E0DECF843638
:107EC00009F040C070D06FD0082F6DD080E0C81688
:107ED00080E7D80618F4F601B7BEE895C0E0D1E017
:107EE00062D089930C17E1F7F0E0CF16F0E7DF06D8
:107EF00018F0F601B7BEE89568D007B600FCFDCFD4
:107F0000A601A0E0B1E02C9130E011968C91119780
:107F100090E0982F8827822B932B1296FA010C0160
:107F200087BEE89511244E5F5F4FF1E0A038BF0790
:107F300051F7F601A7BEE89507B600FCFDCF97BE46
:107F4000E89526C08437B1F42ED02DD0F82E2BD052
:107F50003CD0F601EF2C8F010F5F1F4F84911BD097
:107F6000EA94F801C1F70894C11CD11CFA94CF0C13
:107F7000D11C0EC0853739F428D08EE10CD085E9AC
:107F80000AD08FE07ACF813511F488E018D01DD067
:107F900080E101D065CF982F8091C00085FFFCCF94
:107FA0009093C60008958091C00087FFFCCF809118
:107FB000C00084FD01C0A8958091C6000895E0E648
:107FC000F0E098E1908380830895EDDF803219F02E
:107FD00088E0F5DFFFCF84E1DECF1F93182FE3DFCA
:107FE0001150E9F7F2DF1F91089580E0E8DFEE27F6
:047FF000FF270994CA
:027FFE00040479
:0400000300007E007B
:00000001FF